{
  "_format": "hh-sol-artifact-1",
  "contractName": "SwirlFactory",
  "sourceName": "contracts/SwirlFactory.sol",
  "abi": [
    {
      "anonymous": false,
      "inputs": [
        {
          "indexed": true,
          "internalType": "address",
          "name": "previousOwner",
          "type": "address"
        },
        {
          "indexed": true,
          "internalType": "address",
          "name": "newOwner",
          "type": "address"
        }
      ],
      "name": "OwnershipTransferred",
      "type": "event"
    },
    {
      "anonymous": false,
      "inputs": [
        {
          "indexed": true,
          "internalType": "address",
          "name": "token0",
          "type": "address"
        },
        {
          "indexed": true,
          "internalType": "address",
          "name": "token1",
          "type": "address"
        },
        {
          "indexed": false,
          "internalType": "address",
          "name": "pair",
          "type": "address"
        },
        {
          "indexed": false,
          "internalType": "uint256",
          "name": "",
          "type": "uint256"
        }
      ],
      "name": "PairCreated",
      "type": "event"
    },
    {
      "inputs": [
        {
          "internalType": "uint256",
          "name": "",
          "type": "uint256"
        }
      ],
      "name": "allPairs",
      "outputs": [
        {
          "internalType": "address",
          "name": "",
          "type": "address"
        }
      ],
      "stateMutability": "view",
      "type": "function"
    },
    {
      "inputs": [],
      "name": "allPairsLength",
      "outputs": [
        {
          "internalType": "uint256",
          "name": "",
          "type": "uint256"
        }
      ],
      "stateMutability": "view",
      "type": "function"
    },
    {
      "inputs": [
        {
          "internalType": "address",
          "name": "tokenA",
          "type": "address"
        },
        {
          "internalType": "address",
          "name": "tokenB",
          "type": "address"
        }
      ],
      "name": "createPair",
      "outputs": [
        {
          "internalType": "address",
          "name": "pair",
          "type": "address"
        }
      ],
      "stateMutability": "nonpayable",
      "type": "function"
    },
    {
      "inputs": [],
      "name": "feeTo",
      "outputs": [
        {
          "internalType": "address",
          "name": "",
          "type": "address"
        }
      ],
      "stateMutability": "view",
      "type": "function"
    },
    {
      "inputs": [],
      "name": "feeToSetter",
      "outputs": [
        {
          "internalType": "address",
          "name": "",
          "type": "address"
        }
      ],
      "stateMutability": "view",
      "type": "function"
    },
    {
      "inputs": [
        {
          "internalType": "address",
          "name": "",
          "type": "address"
        },
        {
          "internalType": "address",
          "name": "",
          "type": "address"
        }
      ],
      "name": "getPair",
      "outputs": [
        {
          "internalType": "address",
          "name": "",
          "type": "address"
        }
      ],
      "stateMutability": "view",
      "type": "function"
    },
    {
      "inputs": [],
      "name": "host",
      "outputs": [
        {
          "internalType": "contract ISuperfluid",
          "name": "",
          "type": "address"
        }
      ],
      "stateMutability": "view",
      "type": "function"
    },
    {
      "inputs": [
        {
          "internalType": "contract ISuperfluid",
          "name": "_host",
          "type": "address"
        },
        {
          "internalType": "address",
          "name": "_SwirlPoolERC20",
          "type": "address"
        },
        {
          "internalType": "address",
          "name": "_SwirlPoolAddress",
          "type": "address"
        },
        {
          "internalType": "address",
          "name": "_swirlTokenProxy",
          "type": "address"
        }
      ],
      "name": "initialize",
      "outputs": [],
      "stateMutability": "nonpayable",
      "type": "function"
    },
    {
      "inputs": [],
      "name": "migrator",
      "outputs": [
        {
          "internalType": "address",
          "name": "",
          "type": "address"
        }
      ],
      "stateMutability": "view",
      "type": "function"
    },
    {
      "inputs": [],
      "name": "owner",
      "outputs": [
        {
          "internalType": "address",
          "name": "",
          "type": "address"
        }
      ],
      "stateMutability": "view",
      "type": "function"
    },
    {
      "inputs": [],
      "name": "renounceOwnership",
      "outputs": [],
      "stateMutability": "nonpayable",
      "type": "function"
    },
    {
      "inputs": [
        {
          "internalType": "address",
          "name": "_feeTo",
          "type": "address"
        }
      ],
      "name": "setFeeTo",
      "outputs": [],
      "stateMutability": "nonpayable",
      "type": "function"
    },
    {
      "inputs": [
        {
          "internalType": "address",
          "name": "_feeToSetter",
          "type": "address"
        }
      ],
      "name": "setFeeToSetter",
      "outputs": [],
      "stateMutability": "nonpayable",
      "type": "function"
    },
    {
      "inputs": [
        {
          "internalType": "address",
          "name": "_migrator",
          "type": "address"
        }
      ],
      "name": "setMigrator",
      "outputs": [],
      "stateMutability": "nonpayable",
      "type": "function"
    },
    {
      "inputs": [
        {
          "internalType": "address",
          "name": "_SwirlPoolAddress",
          "type": "address"
        }
      ],
      "name": "setSwirlPoolAddress",
      "outputs": [],
      "stateMutability": "nonpayable",
      "type": "function"
    },
    {
      "inputs": [],
      "name": "swirlPoolAddress",
      "outputs": [
        {
          "internalType": "address",
          "name": "",
          "type": "address"
        }
      ],
      "stateMutability": "view",
      "type": "function"
    },
    {
      "inputs": [],
      "name": "swirlPoolERC20",
      "outputs": [
        {
          "internalType": "address",
          "name": "",
          "type": "address"
        }
      ],
      "stateMutability": "view",
      "type": "function"
    },
    {
      "inputs": [],
      "name": "swirlTokenProxy",
      "outputs": [
        {
          "internalType": "address",
          "name": "",
          "type": "address"
        }
      ],
      "stateMutability": "view",
      "type": "function"
    },
    {
      "inputs": [
        {
          "internalType": "address",
          "name": "newOwner",
          "type": "address"
        }
      ],
      "name": "transferOwnership",
      "outputs": [],
      "stateMutability": "nonpayable",
      "type": "function"
    }
  ],
  "bytecode": "0x6080604052641500000001600a5534801561001957600080fd5b5061002333610028565b610078565b600080546001600160a01b038381166001600160a01b0319831681178455604051919092169283917f8be0079c531659141344cd1fd0a4f28419497f9722a3daafe3b4186f6b6457e09190a35050565b611267806100876000396000f3fe608060405234801561001057600080fd5b50600436106101215760003560e01c80639bdd71d5116100ad578063f2fde38b11610071578063f2fde38b14610261578063f437bc5914610274578063f46901ed14610287578063f8c8765e1461029a578063fc0ee849146102ad57600080fd5b80639bdd71d5146101e1578063a2e74af6146101f4578063bd2be78d14610207578063c9c653961461021a578063e6a439051461022d57600080fd5b8063574f2ba3116100f4578063574f2ba314610191578063715018a6146101a25780637cd07e47146101aa57806385f56f45146101bd5780638da5cb5b146101d057600080fd5b8063017e7e5814610126578063094b7415146101565780631e3dd18b1461016957806323cf31181461017c575b600080fd5b600554610139906001600160a01b031681565b6040516001600160a01b0390911681526020015b60405180910390f35b600654610139906001600160a01b031681565b610139610177366004610f52565b6102c0565b61018f61018a366004610f80565b6102ea565b005b60015460405190815260200161014d565b61018f61033f565b600754610139906001600160a01b031681565b600254610139906001600160a01b031681565b6000546001600160a01b0316610139565b600354610139906001600160a01b031681565b61018f610202366004610f80565b610375565b61018f610215366004610f80565b6103c1565b610139610228366004610fa4565b61040d565b61013961023b366004610fa4565b60096020908152600092835260408084209091529082529020546001600160a01b031681565b61018f61026f366004610f80565b610c5e565b600854610139906001600160a01b031681565b61018f610295366004610f80565b610cf9565b61018f6102a8366004610fdd565b610d45565b600454610139906001600160a01b031681565b600181815481106102d057600080fd5b6000918252602090912001546001600160a01b0316905081565b6006546001600160a01b0316331461031d5760405162461bcd60e51b815260040161031490611039565b60405180910390fd5b600780546001600160a01b0319166001600160a01b0392909216919091179055565b6000546001600160a01b031633146103695760405162461bcd60e51b815260040161031490611067565b6103736000610dbf565b565b6006546001600160a01b0316331461039f5760405162461bcd60e51b815260040161031490611039565b600680546001600160a01b0319166001600160a01b0392909216919091179055565b6000546001600160a01b031633146103eb5760405162461bcd60e51b815260040161031490611067565b600280546001600160a01b0319166001600160a01b0392909216919091179055565b6000816001600160a01b0316836001600160a01b0316036104705760405162461bcd60e51b815260206004820152601e60248201527f556e697377617056323a204944454e544943414c5f41444452455353455300006044820152606401610314565b600080836001600160a01b0316856001600160a01b031610610493578385610496565b84845b90925090506001600160a01b0382166104f15760405162461bcd60e51b815260206004820152601760248201527f556e697377617056323a205a45524f5f414444524553530000000000000000006044820152606401610314565b6001600160a01b0382811660009081526009602090815260408083208585168452909152902054161561055f5760405162461bcd60e51b8152602060048201526016602482015275556e697377617056323a20504149525f45584953545360501b6044820152606401610314565b600354600090610577906001600160a01b0316610e0f565b600354909150600090610592906001600160a01b0316610e0f565b6004549091506000906105ad906001600160a01b0316610e0f565b6040516bffffffffffffffffffffffff19606088811b8216602084015287901b16603482015290915060009060480160408051601f19818403018152919052805160209091012060025490915061060d906001600160a01b031682610eac565b60405163189acdbd60e31b81526001600160a01b038083166004830152919850879187919085169063c4d66de890602401600060405180830381600087803b15801561065857600080fd5b505af115801561066c573d6000803e3d6000fd5b50505050856001600160a01b031663b6f9722683846001600160a01b031663313ce5676040518163ffffffff1660e01b8152600401602060405180830381865afa1580156106be573d6000803e3d6000fd5b505050506040513d601f19601f820116820180604052508101906106e2919061109c565b856001600160a01b03166306fdde036040518163ffffffff1660e01b8152600401600060405180830381865afa158015610720573d6000803e3d6000fd5b505050506040513d6000823e601f3d908101601f191682016040526107489190810190611105565b866001600160a01b03166395d89b416040518163ffffffff1660e01b8152600401600060405180830381865afa158015610786573d6000803e3d6000fd5b505050506040513d6000823e601f3d908101601f191682016040526107ae9190810190611105565b8e6040518663ffffffff1660e01b81526004016107cf9594939291906111de565b600060405180830381600087803b1580156107e957600080fd5b505af11580156107fd573d6000803e3d6000fd5b50505050846001600160a01b031663b6f9722682836001600160a01b031663313ce5676040518163ffffffff1660e01b8152600401602060405180830381865afa15801561084f573d6000803e3d6000fd5b505050506040513d601f19601f82011682018060405250810190610873919061109c565b846001600160a01b03166306fdde036040518163ffffffff1660e01b8152600401600060405180830381865afa1580156108b1573d6000803e3d6000fd5b505050506040513d6000823e601f3d908101601f191682016040526108d99190810190611105565b856001600160a01b03166395d89b416040518163ffffffff1660e01b8152600401600060405180830381865afa158015610917573d6000803e3d6000fd5b505050506040513d6000823e601f3d908101601f1916820160405261093f9190810190611105565b8e6040518663ffffffff1660e01b81526004016109609594939291906111de565b600060405180830381600087803b15801561097a57600080fd5b505af115801561098e573d6000803e3d6000fd5b5050600854600a546040516379b9982960e11b81526001600160a01b038e8116600483015260248201929092529116925063f37330529150604401600060405180830381600087803b1580156109e357600080fd5b505af11580156109f7573d6000803e3d6000fd5b50506040805160c0810182526008546001600160a01b039081168252888116602083019081528d82168385019081528d8316606085019081528d8416608086019081528d851660a08701908152965163f5ee070f60e01b8152865186166004820152935185166024850152915184166044840152518316606483015251821660848201529251811660a48401529093508c16915063f5ee070f9060c401600060405180830381600087803b158015610aae57600080fd5b505af1158015610ac2573d6000803e3d6000fd5b5050505089600960008b6001600160a01b03166001600160a01b0316815260200190815260200160002060008a6001600160a01b03166001600160a01b0316815260200190815260200160002060006101000a8154816001600160a01b0302191690836001600160a01b0316021790555089600960008a6001600160a01b03166001600160a01b0316815260200190815260200160002060008b6001600160a01b03166001600160a01b0316815260200190815260200160002060006101000a8154816001600160a01b0302191690836001600160a01b0316021790555060018a9080600181540180825580915050600190039060005260206000200160009091909190916101000a8154816001600160a01b0302191690836001600160a01b03160217905550876001600160a01b0316896001600160a01b03167f0d3648bd0f6ba80134a33ba9275ac585d9d315f0ad8355cddefde31afa28d0e98c600180549050604051610c479291906001600160a01b03929092168252602082015260400190565b60405180910390a350505050505050505092915050565b6000546001600160a01b03163314610c885760405162461bcd60e51b815260040161031490611067565b6001600160a01b038116610ced5760405162461bcd60e51b815260206004820152602660248201527f4f776e61626c653a206e6577206f776e657220697320746865207a65726f206160448201526564647265737360d01b6064820152608401610314565b610cf681610dbf565b50565b6006546001600160a01b03163314610d235760405162461bcd60e51b815260040161031490611039565b600580546001600160a01b0319166001600160a01b0392909216919091179055565b6000546001600160a01b03163314610d6f5760405162461bcd60e51b815260040161031490611067565b600880546001600160a01b039586166001600160a01b0319918216179091556004805494861694821694909417909355600280549285169284169290921790915560038054919093169116179055565b600080546001600160a01b038381166001600160a01b0319831681178455604051919092169283917f8be0079c531659141344cd1fd0a4f28419497f9722a3daafe3b4186f6b6457e09190a35050565b6000604051733d602d80600a3d3981f3363d3d373d3d3d363d7360601b81528260601b60148201526e5af43d82803e903d91602b57fd5bf360881b60288201526037816000f09150506001600160a01b038116610ea75760405162461bcd60e51b8152602060048201526016602482015275115490cc4c4d8dce8818dc99585d194819985a5b195960521b6044820152606401610314565b919050565b6000604051733d602d80600a3d3981f3363d3d373d3d3d363d7360601b81528360601b60148201526e5af43d82803e903d91602b57fd5bf360881b6028820152826037826000f59150506001600160a01b038116610f4c5760405162461bcd60e51b815260206004820152601760248201527f455243313136373a2063726561746532206661696c65640000000000000000006044820152606401610314565b92915050565b600060208284031215610f6457600080fd5b5035919050565b6001600160a01b0381168114610cf657600080fd5b600060208284031215610f9257600080fd5b8135610f9d81610f6b565b9392505050565b60008060408385031215610fb757600080fd5b8235610fc281610f6b565b91506020830135610fd281610f6b565b809150509250929050565b60008060008060808587031215610ff357600080fd5b8435610ffe81610f6b565b9350602085013561100e81610f6b565b9250604085013561101e81610f6b565b9150606085013561102e81610f6b565b939692955090935050565b6020808252601490820152732ab734b9bbb0b82b191d102327a92124a22222a760611b604082015260600190565b6020808252818101527f4f776e61626c653a2063616c6c6572206973206e6f7420746865206f776e6572604082015260600190565b6000602082840312156110ae57600080fd5b815160ff81168114610f9d57600080fd5b634e487b7160e01b600052604160045260246000fd5b60005b838110156110f05781810151838201526020016110d8565b838111156110ff576000848401525b50505050565b60006020828403121561111757600080fd5b815167ffffffffffffffff8082111561112f57600080fd5b818401915084601f83011261114357600080fd5b815181811115611155576111556110bf565b604051601f8201601f19908116603f0116810190838211818310171561117d5761117d6110bf565b8160405282815287602084870101111561119657600080fd5b6111a78360208301602088016110d5565b979650505050505050565b600081518084526111ca8160208601602086016110d5565b601f01601f19169290920160200192915050565b600060018060a01b03808816835260ff8716602084015260a0604084015261120960a08401876111b2565b838103606085015261121b81876111b2565b925050808416608084015250969550505050505056fea2646970667358221220c34d85d58541feeba28e7f67289bb2b77e2c8668d0a0c72b1124a595688a0b1b64736f6c634300080d0033",
  "linkReferences": {},
  "deployedLinkReferences": {}
}