{
  "_format": "hh-sol-artifact-1",
  "contractName": "SwirlPoolERC20",
  "sourceName": "contracts/SwirlPoolERC20.sol",
  "abi": [
    {
      "anonymous": false,
      "inputs": [
        {
          "indexed": true,
          "internalType": "address",
          "name": "owner",
          "type": "address"
        },
        {
          "indexed": true,
          "internalType": "address",
          "name": "spender",
          "type": "address"
        },
        {
          "indexed": false,
          "internalType": "uint256",
          "name": "value",
          "type": "uint256"
        }
      ],
      "name": "Approval",
      "type": "event"
    },
    {
      "anonymous": false,
      "inputs": [
        {
          "indexed": true,
          "internalType": "address",
          "name": "from",
          "type": "address"
        },
        {
          "indexed": true,
          "internalType": "address",
          "name": "to",
          "type": "address"
        },
        {
          "indexed": false,
          "internalType": "uint256",
          "name": "value",
          "type": "uint256"
        }
      ],
      "name": "Transfer",
      "type": "event"
    },
    {
      "inputs": [],
      "name": "DOMAIN_SEPARATOR",
      "outputs": [
        {
          "internalType": "bytes32",
          "name": "",
          "type": "bytes32"
        }
      ],
      "stateMutability": "view",
      "type": "function"
    },
    {
      "inputs": [],
      "name": "PERMIT_TYPEHASH",
      "outputs": [
        {
          "internalType": "bytes32",
          "name": "",
          "type": "bytes32"
        }
      ],
      "stateMutability": "view",
      "type": "function"
    },
    {
      "inputs": [
        {
          "internalType": "address",
          "name": "",
          "type": "address"
        },
        {
          "internalType": "address",
          "name": "",
          "type": "address"
        }
      ],
      "name": "allowance",
      "outputs": [
        {
          "internalType": "uint256",
          "name": "",
          "type": "uint256"
        }
      ],
      "stateMutability": "view",
      "type": "function"
    },
    {
      "inputs": [
        {
          "internalType": "address",
          "name": "spender",
          "type": "address"
        },
        {
          "internalType": "uint256",
          "name": "value",
          "type": "uint256"
        }
      ],
      "name": "approve",
      "outputs": [
        {
          "internalType": "bool",
          "name": "",
          "type": "bool"
        }
      ],
      "stateMutability": "nonpayable",
      "type": "function"
    },
    {
      "inputs": [
        {
          "internalType": "address",
          "name": "account",
          "type": "address"
        }
      ],
      "name": "balanceOf",
      "outputs": [
        {
          "internalType": "uint256",
          "name": "",
          "type": "uint256"
        }
      ],
      "stateMutability": "view",
      "type": "function"
    },
    {
      "inputs": [
        {
          "internalType": "address",
          "name": "",
          "type": "address"
        }
      ],
      "name": "balances",
      "outputs": [
        {
          "internalType": "uint256",
          "name": "",
          "type": "uint256"
        }
      ],
      "stateMutability": "view",
      "type": "function"
    },
    {
      "inputs": [
        {
          "internalType": "address",
          "name": "from",
          "type": "address"
        },
        {
          "internalType": "uint256",
          "name": "value",
          "type": "uint256"
        }
      ],
      "name": "burn",
      "outputs": [
        {
          "internalType": "bool",
          "name": "",
          "type": "bool"
        }
      ],
      "stateMutability": "nonpayable",
      "type": "function"
    },
    {
      "inputs": [],
      "name": "decimals",
      "outputs": [
        {
          "internalType": "uint8",
          "name": "",
          "type": "uint8"
        }
      ],
      "stateMutability": "view",
      "type": "function"
    },
    {
      "inputs": [
        {
          "internalType": "address",
          "name": "_pair",
          "type": "address"
        }
      ],
      "name": "initialize",
      "outputs": [],
      "stateMutability": "nonpayable",
      "type": "function"
    },
    {
      "inputs": [
        {
          "internalType": "address",
          "name": "to",
          "type": "address"
        },
        {
          "internalType": "uint256",
          "name": "value",
          "type": "uint256"
        }
      ],
      "name": "mint",
      "outputs": [
        {
          "internalType": "bool",
          "name": "",
          "type": "bool"
        }
      ],
      "stateMutability": "nonpayable",
      "type": "function"
    },
    {
      "inputs": [],
      "name": "name",
      "outputs": [
        {
          "internalType": "string",
          "name": "",
          "type": "string"
        }
      ],
      "stateMutability": "view",
      "type": "function"
    },
    {
      "inputs": [
        {
          "internalType": "address",
          "name": "",
          "type": "address"
        }
      ],
      "name": "nonces",
      "outputs": [
        {
          "internalType": "uint256",
          "name": "",
          "type": "uint256"
        }
      ],
      "stateMutability": "view",
      "type": "function"
    },
    {
      "inputs": [],
      "name": "pair",
      "outputs": [
        {
          "internalType": "address",
          "name": "",
          "type": "address"
        }
      ],
      "stateMutability": "view",
      "type": "function"
    },
    {
      "inputs": [
        {
          "internalType": "address",
          "name": "owner",
          "type": "address"
        },
        {
          "internalType": "address",
          "name": "spender",
          "type": "address"
        },
        {
          "internalType": "uint256",
          "name": "value",
          "type": "uint256"
        },
        {
          "internalType": "uint256",
          "name": "deadline",
          "type": "uint256"
        },
        {
          "internalType": "uint8",
          "name": "v",
          "type": "uint8"
        },
        {
          "internalType": "bytes32",
          "name": "r",
          "type": "bytes32"
        },
        {
          "internalType": "bytes32",
          "name": "s",
          "type": "bytes32"
        }
      ],
      "name": "permit",
      "outputs": [],
      "stateMutability": "nonpayable",
      "type": "function"
    },
    {
      "inputs": [],
      "name": "symbol",
      "outputs": [
        {
          "internalType": "string",
          "name": "",
          "type": "string"
        }
      ],
      "stateMutability": "view",
      "type": "function"
    },
    {
      "inputs": [],
      "name": "totalSupply",
      "outputs": [
        {
          "internalType": "uint256",
          "name": "",
          "type": "uint256"
        }
      ],
      "stateMutability": "view",
      "type": "function"
    },
    {
      "inputs": [
        {
          "internalType": "address",
          "name": "to",
          "type": "address"
        },
        {
          "internalType": "uint256",
          "name": "value",
          "type": "uint256"
        }
      ],
      "name": "transfer",
      "outputs": [
        {
          "internalType": "bool",
          "name": "",
          "type": "bool"
        }
      ],
      "stateMutability": "nonpayable",
      "type": "function"
    },
    {
      "inputs": [
        {
          "internalType": "address",
          "name": "from",
          "type": "address"
        },
        {
          "internalType": "address",
          "name": "to",
          "type": "address"
        },
        {
          "internalType": "uint256",
          "name": "value",
          "type": "uint256"
        }
      ],
      "name": "transferFrom",
      "outputs": [
        {
          "internalType": "bool",
          "name": "",
          "type": "bool"
        }
      ],
      "stateMutability": "nonpayable",
      "type": "function"
    }
  ],
  "bytecode": "0x608060405234801561001057600080fd5b50610c1f806100206000396000f3fe608060405234801561001057600080fd5b50600436106101165760003560e01c806370a08231116100a2578063a8aa1b3111610071578063a8aa1b31146102a5578063a9059cbb146102d0578063c4d66de8146102e3578063d505accf146103ec578063dd62ed3e146103ff57600080fd5b806370a08231146102245780637ecebe001461024d57806395d89b411461026d5780639dc29fac1461029257600080fd5b806327e235e3116100e957806327e235e3146101a757806330adf81f146101c7578063313ce567146101ee5780633644e5151461020857806340c10f191461021157600080fd5b806306fdde031461011b578063095ea7b31461015a57806318160ddd1461017d57806323b872dd14610194575b600080fd5b6101446040518060400160405280600a8152602001692ab734b9bbb0b8102b1960b11b81525081565b60405161015191906109f3565b60405180910390f35b61016d610168366004610a64565b61042a565b6040519015158152602001610151565b61018660015481565b604051908152602001610151565b61016d6101a2366004610a8e565b610440565b6101866101b5366004610aca565b60026020526000908152604090205481565b6101867f6e71edae12b1b97f4d1f60370fef10105fa2faae0126114a169c64845d6126c981565b6101f6601281565b60405160ff9091168152602001610151565b61018660045481565b61016d61021f366004610a64565b6104d4565b610186610232366004610aca565b6001600160a01b031660009081526002602052604090205490565b61018661025b366004610aca565b60056020526000908152604090205481565b610144604051806040016040528060068152602001652aa72496ab1960d11b81525081565b61016d6102a0366004610a64565b610535565b6000546102b8906001600160a01b031681565b6040516001600160a01b039091168152602001610151565b61016d6102de366004610a64565b610591565b6103ea6102f1366004610aca565b600080546001600160a01b0319166001600160a01b038316179055604080518082018252600a8152692ab734b9bbb0b8102b1960b11b6020918201528151808301835260018152603160f81b9082015281517f8b73c3c69bb8fe3d512ecc4cf759cc79239f7b179b0ffacaa9a75d522b39400f918101919091527fbfcc8ef98ffbf7b6c3fec7bf5185b566b9863e35a9d83acd49ad6824b5969738918101919091527fc89efdaa54c0f20c7adf612882df0950f5a951637e0307cdcb4c672f298b8bc6606082015246608082018190523060a08301529060c00160408051601f1981840301815291905280516020909101206004555050565b005b6103ea6103fa366004610ae5565b61059e565b61018661040d366004610b58565b600360209081526000928352604080842090915290825290205481565b60006104373384846107b2565b50600192915050565b6001600160a01b0383166000908152600360209081526040808320338452909152812054600019146104bf576001600160a01b038416600090815260036020908152604080832033845290915290205461049a9083610814565b6001600160a01b03851660009081526003602090815260408083203384529091529020555b6104ca848484610827565b5060019392505050565b600080546001600160a01b0316331461052b5760405162461bcd60e51b815260206004820152601460248201527329bbb4b9362837b7b61d1037b7363c903830b4b960611b60448201526064015b60405180910390fd5b61043783836108cd565b600080546001600160a01b031633146105875760405162461bcd60e51b815260206004820152601460248201527329bbb4b9362837b7b61d1037b7363c903830b4b960611b6044820152606401610522565b610437838361095d565b6000610437338484610827565b428410156105e35760405162461bcd60e51b8152602060048201526012602482015271155b9a5cddd85c158c8e881156141254915160721b6044820152606401610522565b6004546001600160a01b038816600090815260056020526040812080549192917f6e71edae12b1b97f4d1f60370fef10105fa2faae0126114a169c64845d6126c9918b918b918b91908761063683610ba1565b909155506040805160208101969096526001600160a01b0394851690860152929091166060840152608083015260a082015260c0810187905260e001604051602081830303815290604052805190602001206040516020016106af92919061190160f01b81526002810192909252602282015260420190565b60408051601f198184030181528282528051602091820120600080855291840180845281905260ff88169284019290925260608301869052608083018590529092509060019060a0016020604051602081039080840390855afa15801561071a573d6000803e3d6000fd5b5050604051601f1901519150506001600160a01b038116158015906107505750886001600160a01b0316816001600160a01b0316145b61079c5760405162461bcd60e51b815260206004820152601c60248201527f556e697377617056323a20494e56414c49445f5349474e4154555245000000006044820152606401610522565b6107a78989896107b2565b505050505050505050565b6001600160a01b0383811660008181526003602090815260408083209487168084529482529182902085905590518481527f8c5be1e5ebec7d5bd14f71427d1e84f3dd0314c0f7b2291e5b200ac8c7c3b92591015b60405180910390a3505050565b60006108208284610bba565b9392505050565b6001600160a01b03831660009081526002602052604090205461084a9082610814565b6001600160a01b03808516600090815260026020526040808220939093559084168152205461087990826109e7565b6001600160a01b0380841660008181526002602052604090819020939093559151908516907fddf252ad1be2c89b69c2b068fc378daa952ba7f163c4a11628f55a4df523b3ef906108079085815260200190565b6001546108da90826109e7565b6001556001600160a01b03821660009081526002602052604090205461090090826109e7565b6001600160a01b0383166000818152600260205260408082209390935591519091907fddf252ad1be2c89b69c2b068fc378daa952ba7f163c4a11628f55a4df523b3ef906109519085815260200190565b60405180910390a35050565b6001600160a01b0382166000908152600260205260409020546109809082610814565b6001600160a01b0383166000908152600260205260409020556001546109a69082610814565b6001556040518181526000906001600160a01b038416907fddf252ad1be2c89b69c2b068fc378daa952ba7f163c4a11628f55a4df523b3ef90602001610951565b60006108208284610bd1565b600060208083528351808285015260005b81811015610a2057858101830151858201604001528201610a04565b81811115610a32576000604083870101525b50601f01601f1916929092016040019392505050565b80356001600160a01b0381168114610a5f57600080fd5b919050565b60008060408385031215610a7757600080fd5b610a8083610a48565b946020939093013593505050565b600080600060608486031215610aa357600080fd5b610aac84610a48565b9250610aba60208501610a48565b9150604084013590509250925092565b600060208284031215610adc57600080fd5b61082082610a48565b600080600080600080600060e0888a031215610b0057600080fd5b610b0988610a48565b9650610b1760208901610a48565b95506040880135945060608801359350608088013560ff81168114610b3b57600080fd5b9699959850939692959460a0840135945060c09093013592915050565b60008060408385031215610b6b57600080fd5b610b7483610a48565b9150610b8260208401610a48565b90509250929050565b634e487b7160e01b600052601160045260246000fd5b600060018201610bb357610bb3610b8b565b5060010190565b600082821015610bcc57610bcc610b8b565b500390565b60008219821115610be457610be4610b8b565b50019056fea26469706673582212203b6e4048b333120289c236541afff04c47f6ba91170307874cefa660e442dec264736f6c634300080d0033",
  "linkReferences": {},
  "deployedLinkReferences": {}
}